:100000000C942A000C9447000C9447000C940B0BA2
:100010000C9447000C9447000C9447000C94470044
:100020000C9447000C9447000C9447000C94470034
:100030000C9447000C9447000C9447000C94470024
:100040000C944F060C9447000C9447000C94470006
:100050000C94470011241FBECFE5D8E0DEBFCDBF12
:1000600010E0A0E6B0E0ECECFEE202C005900D92DC
:10007000AE3AB107D9F710E0AEEAB0E001C01D9288
:10008000A33DB107E1F70E941D150C9464170C9471
:100090000000EF92FF920F931F937B018C0120E0F1
:1000A00030E040E05FE40E94F50388238CF0C80153
:1000B000B70120E030E040E05FE40E94C1010E940F
:1000C00055049B01AC01205030404040504806C0D0
:1000D000C801B7010E9455049B01AC01B901CA01D6
:1000E0001F910F91FF90EF900895A0E0B0E0EBE733
:1000F000F0E00C942D17DC012B01FA019C91923059
:1001000008F439C1EB018881823008F433C194309E
:1001100069F4843009F02FC111969C91119789815F
:10012000981709F428C1A5E9B0E025C1843009F485
:1001300021C18230A9F4923009F01DC19A01AD01AC
:1001400088E0EA010990AE01E90109929E0181501F
:10015000C1F7E201898111969C918923818308C1AD
:10016000923009F407C112962D903C901397EB0141
:100170008A819B811496AD90BD90CD90DC901797AD
:10018000EC80FD800E811F819101281B390BB90184
:1001900037FF04C066277727621B730B6032710537
:1001A0000CF061C0121613066CF537014801062EDB
:1001B00004C096948794779467940A94D2F721E0C8
:1001C00030E040E050E004C0220F331F441F551FB1
:1001D0006A95D2F721503040404050402E213F21B7
:1001E00040235123211531054105510521F021E01E
:1001F00030E040E050E079018A01E628F72808293C
:1002000019293CC0232BD1F1260E371E350146019A
:10021000062E04C096948794779467940A94D2F734
:1002200021E030E040E050E004C0220F331F441FC3
:10023000551F6A95D2F721503040404050402A2146
:100240003B214C215D21211531054105510521F04E
:1002500021E030E040E050E059016A01A628B728CB
:10026000C828D9280BC0821593052CF01C01AA249C
:10027000BB24650103C0EE24FF24870111969C91E5
:10028000D20111968C91981709F445C0992339F041
:10029000A80197012A193B094C095D0906C0A6016E
:1002A00095012E193F09400B510B57FD08C01182D3
:1002B0003382228224833583468357831DC081E0A5
:1002C00081833382228288279927DC01821B930B4A
:1002D000A40BB50B84839583A683B7830DC0220F2F
:1002E000331F441F551F24833583468357838281E0
:1002F000938101979383828324813581468157813D
:10030000DA01C9010197A109B1098F5F9F4FAF4F72
:10031000BF4328F30BC0918333822282EA0CFB1C7B
:100320000C1D1D1DE482F5820683178383E0808304
:10033000248135814681578157FF1AC0C901AA27F8
:1003400097FDA095BA2F81709070A070B0705695EF
:10035000479537952795822B932BA42BB52B848318
:100360009583A683B7838281938101969383828349
:10037000DF0101C0D201CD01CDB7DEB7E2E10C94BF
:100380004917A0E2B0E0E7ECF1E00C94391769837B
:100390007A838B839C832D833E834F835887E9E048
:1003A000EE2EF12CEC0EFD1ECE010196B7010E943F
:1003B0007E058E010F5E1F4FCE010596B8010E948B
:1003C0007E058A8991E089278A8BC701B801AE0131
:1003D000475E5F4F0E9475000E94A904A096E6E068
:1003E0000C945517A0E2B0E0E8EFF1E00C94391757
:1003F00069837A838B839C832D833E834F835887C5
:10040000F9E0EF2EF12CEC0EFD1ECE010196B701A6
:100410000E947E058E010F5E1F4FCE010596B8012A
:100420000E947E05C701B801AE01475E5F4F0E9482
:1004300075000E94A904A096E6E00C945517A0E26E
:10044000B0E0E5E2F2E00C942D1769837A838B83A8
:100450009C832D833E834F835887CE010196BE0136
:10046000675F7F4F0E947E05CE010596BE016F5EDD
:100470007F4F0E947E059985923088F0898982306D
:10048000C8F0943019F4823051F404C0843029F457
:10049000923081F485E990E0C6C0923049F420E0C2
:1004A0009A858A89981321E02A87CE010996BBC0D4
:1004B000823049F420E09A858A89981321E02A8BBA
:1004C000CE014196B0C02D843E844F8458886D88FB
:1004D0007E888F88988CEE24FF248701AA24BB2471
:1004E000650140E050E060E070E0E0E0F0E0C10174
:1004F00081709070892BE9F0E60CF71C081D191D1E
:100500009A01AB012A0D3B1D4C1D5D1D80E090E062
:10051000A0E0B0E0E614F7040805190520F481E036
:1005200090E0A0E0B0E0BA01A901480F591F6A1F8E
:100530007B1FAA0CBB1CCC1CDD1C97FE08C081E0F5
:1005400090E0A0E0B0E0A82AB92ACA2ADB2A3196B6
:10055000E032F10549F0660C771C881C991C569412
:10056000479437942794C3CFFA85EA892B893C892D
:100570008B859C85280F391F2E5F3F4F17C0CA01FE
:1005800081709070892B61F016950795F794E79428
:1005900080E090E0A0E0B0E8E82AF92A0A2B1B2BC3
:1005A00076956795579547952F5F3F4F77FDE7CF36
:1005B0000CC0440F551F661F771F17FD4160EE0CDE
:1005C000FF1C001F111F21503040403090E05907A0
:1005D00090E0690790E4790760F32B8F3C8FDB0193
:1005E000CA018F779070A070B07080349105A1051A
:1005F000B10561F447FD0AC0E114F10401051105DC
:1006000029F0405C5F4F6F4F7F4F40781A8EFE1786
:1006100011F081E08A8F4D8F5E8F6F8F78A383E01A
:10062000898FCE0149960E94A904A096E2E10C941C
:100630004917A8E1B0E0EFE1F3E00C9435176983C6
:100640007A838B839C832D833E834F835887B9E0C5
:10065000EB2EF12CEC0EFD1ECE010196B7010E948F
:100660007E058E010F5E1F4FCE010596B8010E94D8
:100670007E052985223008F47EC03989323010F495
:10068000B8017CC08A859A8989278A87243011F02D
:10069000223031F4231709F06EC065E970E06EC0B6
:1006A000343039F41D861E861F86188A1C861B86E8
:1006B00004C0323021F484E08987B7015FC02B8504
:1006C0003C858B899C89281B390B3C872B87ED84C3
:1006D000FE840F851889AD88BE88CF88D88CEA142F
:1006E000FB040C051D0540F4EE0CFF1C001F111F40
:1006F000215030403C872B8720E030E040E050E044
:1007000080E090E0A0E0B0E460E070E0EA14FB0478
:100710000C051D0540F0282B392B4A2B5B2BEA18C2
:10072000FB080C091D09B695A79597958795EE0CC2
:10073000FF1C001F111F6F5F7F4F6F31710531F775
:10074000DA01C9018F779070A070B0708034910584
:10075000A105B10561F427FD0AC0E114F10401050A
:10076000110529F0205C3F4F4F4F5F4F20782D87B8
:100770003E874F87588BBE01675F7F4FCB010E943A
:10078000A9046896EAE00C945117A8E1B0E0EBECFC
:10079000F3E00C94391769837A838B839C832D83D0
:1007A0003E834F83588789E0E82EF12CEC0EFD1E26
:1007B000CE010196B7010E947E058E010F5E1F4F8C
:1007C000CE010596B8010E947E058985823040F0F1
:1007D0008989823028F0C701B8010E94F60501C05E
:1007E0008FEF6896E6E00C945517A8E1B0E0EBEFC8
:1007F000F3E00C94391769837A838B839C832D8370
:100800003E834F83588789E0E82EF12CEC0EFD1EC5
:10081000CE010196B7010E947E058E010F5E1F4F2B
:10082000CE010596B8010E947E058985823040F090
:100830008989823028F0C701B8010E94F60501C0FD
:100840008FEF6896E6E00C945517A8E1B0E0EBE274
:10085000F4E00C94391769837A838B839C832D830E
:100860003E834F83588789E0E82EF12CEC0EFD1E65
:10087000CE010196B7010E947E058E010F5E1F4FCB
:10088000CE010596B8010E947E058985823040F030
:100890008989823028F0C701B8010E94F60501C09D
:1008A00081E06896E6E00C945517ACE0B0E0EBE52B
:1008B000F4E00C943D1769837A838B839C83CE018B
:1008C0000196BE016B5F7F4F0E947E058D81823055
:1008D00061F1823050F1843021F48E81882351F10E
:1008E0002EC02F81388537FD20C06E812F31310514
:1008F0001CF06623F9F023C08EE190E0821B930B7D
:1009000029853A854B855C8504C056954795379572
:1009100027958A95D2F76623B1F05095409530958A
:1009200021953F4F4F4F5F4F0EC020E030E040E039
:1009300050E009C02FEF3FEF4FEF5FE704C020E02A
:1009400030E040E050E8B901CA012C96E2E00C9496
:100950005917DF92EF92FF920F931F93FC01E480EF
:10096000F58006811781D1808081823048F480E053
:1009700090E0A0E1B0E0E82AF92A0A2B1B2BA5C0E1
:10098000843009F49FC0823021F4EE24FF248701D3
:1009900005C0E114F1040105110519F4E0E0F0E0EF
:1009A00096C0628173819FEF623879070CF05BC05B
:1009B00022E83FEF261B370B2A3131052CF020E0CF
:1009C00030E040E050E02AC0B801A701022E04C088
:1009D00076956795579547950A94D2F781E090E010
:1009E000A0E0B0E004C0880F991FAA1FBB1F2A9582
:1009F000D2F70197A109B1098E219F21A023B1232C
:100A00000097A105B10521F081E090E0A0E0B0E001
:100A10009A01AB01282B392B4A2B5B2BDA01C90138
:100A20008F779070A070B07080349105A105B105EA
:100A300039F427FF09C0205C3F4F4F4F5F4F04C080
:100A4000215C3F4F4F4F5F4FE0E0F0E02030A0E0EF
:100A50003A07A0E04A07A0E45A0710F0E1E0F0E00E
:100A600079018A0127C06038710564F5FB01E158FE
:100A7000FF4FD801C7018F779070A070B07080349D
:100A80009105A105B10539F4E7FE0DC080E490E0C1
:100A9000A0E0B0E004C08FE390E0A0E0B0E0E80E9A
:100AA000F91E0A1F1B1F17FF05C016950795F7941F
:100AB000E794319687E016950795F794E7948A9521
:100AC000D1F705C0EE24FF248701EFEFF0E06E2F91
:100AD000679566276795902F9F77D794DD24D794E5
:100AE0008E2F8695492F462B582F5D29B701CA01B5
:100AF0001F910F91FF90EF90DF900895FC01DB01B3
:100B0000408151812281622F6F7770E0221F22275E
:100B1000221F9381892F880F822B282F30E0991F65
:100B20009927991F11969C93119721153105A9F5C5
:100B3000411551056105710511F482E037C082E865
:100B40009FEF13969C938E9312979A01AB0167E0E7
:100B5000220F331F441F551F6A95D1F783E08C93F2
:100B60000DC0220F331F441F551F12968D919C916B
:100B70001397019713969C938E931297203080E0E1
:100B8000380780E0480780E4580758F314962D93FF
:100B90003D934D935C93179708952F3F310579F45A
:100BA000411551056105710519F484E08C93089590
:100BB00064FF03C081E08C9312C01C9210C02F57B9
:100BC000304013963C932E93129783E08C9387E0EA
:100BD000440F551F661F771F8A95D1F770641496CE
:100BE0004D935D936D937C93179708951F93DC014C
:100BF000FB019C91923008F447C08081823008F458
:100C000043C0943051F411961C91843099F5818140
:100C1000682F70E0611B71093FC0843021F0923071
:100C200031F48230B9F18181882389F12DC0119688
:100C30001C9111978230F1F081811817D9F4129626
:100C40002D913C911397828193818217930794F0A1
:100C500028173907BCF014968D919D910D90BC9189
:100C6000A02D2481358146815781281739074A07ED
:100C70005B0718F4112341F00AC082179307A407F9
:100C8000B50740F4112319F061E070E005C06FEF83
:100C90007FEF02C060E070E0CB011F9108951F92CA
:100CA0000F920FB60F9211242F933F934F935F93A0
:100CB0006F937F938F939F93EF93FF93DF93CF93E4
:100CC000CDB7DEB78091AF00682F70E0E5E2F0E0CD
:100CD0008081282F30E040E050E0CB01880F991F41
:100CE000880F991FFC01E055FF4F20833183428319
:100CF00053838091AF008F5F8093AF008091AF00EE
:100D0000883018F081E08093AE00CF91DF91FF91A1
:100D1000EF919F918F917F916F915F914F913F9153
:100D20002F910F900FBE0F901F901895DF93CF93C8
:100D3000CDB7DEB7A7E2B0E0E7E2F0E08081806205
:100D40008C93A7E2B0E0E7E2F0E0808180648C93CE
:100D5000A7E2B0E0E7E2F0E080818F778C93A6E233
:100D6000B0E0E6E2F0E0808188608C93AFE5B0E02F
:100D7000EFE5F0E0808180688C93A6E2B0E0E6E2E7
:100D8000F0E0808180688C93A6E2B0E0E6E2F0E0DB
:100D900080818E7F8C93A6E2B0E0E6E2F0E0808175
:100DA0008D7F8C93A6E2B0E0E6E2F0E080818B7F5D
:100DB0008C93CF91DF910895DF93CF9300D000D033
:100DC000CDB7DEB78A837C836B8319828B819C814C
:100DD000009719F481E089833BC08A81883018F03C
:100DE00081E0898335C0A7E2B0E0E7E2F0E08081EE
:100DF000807E8C93A7E2B0E0E7E2F0E090818A8108
:100E0000892B8C93A6E2B0E0E6E2F0E0808180647A
:100E10008C93E6E2F0E0808182958F70882F90E0DD
:100E2000817090708823A1F08A81882F90E0880FCC
:100E3000991F880F991FFC01E055FF4F8081918118
:100E4000A281B381EB81FC8180839183A283B383F0
:100E500089810F900F900F900F90CF91DF9108959F
:100E6000DF93CF9300D000D000D0CDB7DEB78A8318
:100E70006B834C8319828A81282F30E03E832D8337
:100E80008D819E818130910509F44FC02D813E8175
:100E9000223031052CF48D819E81009771F0EDC0D8
:100EA0002D813E812230310509F477C08D819E81EC
:100EB0008330910509F4A9C0E0C08B81883018F017
:100EC00081E08983DCC08C818823A9F4AAE3B0E0A7
:100ED000EAE3F0E08081482F8B81282F30E081E029
:100EE00090E0022E02C0880F991F0A94E2F78095C5
:100EF00084238C93C4C08C818130A1F4AAE3B0E038
:100F0000EAE3F0E08081482F8B81282F30E081E0F8
:100F100090E0022E02C0880F991F0A94E2F7842BFA
:100F20008C93ADC081E08983AAC08B81883018F092
:100F300081E08983A4C08C818823A9F4A7E3B0E071
:100F4000E7E3F0E08081482F8B81282F30E081E0BB
:100F500090E0022E02C0880F991F0A94E2F7809554
:100F600084238C938CC08C818130A1F4A7E3B0E002
:100F7000E7E3F0E08081482F8B81282F30E081E08B
:100F800090E0022E02C0880F991F0A94E2F7842B8A
:100F90008C9375C081E0898372C08B81883018F092
:100FA00081E089836CC08C818823A9F4A4E3B0E03C
:100FB000E4E3F0E08081482F8B81282F30E081E04E
:100FC00090E0022E02C0880F991F0A94E2F78095E4
:100FD00084238C9354C08C818130A1F4A4E3B0E0CD
:100FE000E4E3F0E08081482F8B81282F30E081E01E
:100FF00090E0022E02C0880F991F0A94E2F7842B1A
:101000008C933DC081E089833AC08B81883018F091
:1010100081E0898334C08C818823A9F4A1E3B0E006
:10102000E1E3F0E08081482F8B81282F30E081E0E0
:1010300090E0022E02C0880F991F0A94E2F7809573
:1010400084238C931CC08C818130A1F4A1E3B0E097
:10105000E1E3F0E08081482F8B81282F30E081E0B0
:1010600090E0022E02C0880F991F0A94E2F7842BA9
:101070008C9305C081E0898302C081E089838981E6
:1010800026960FB6F894DEBF0FBECDBFCF91DF918D
:101090000895DF93CF9300D000D000D0CDB7DEB756
:1010A0008A836B834C8319828A81282F30E03E83A8
:1010B0002D838D819E818130910509F44FC02D8152
:1010C0003E81223031052CF48D819E81009771F094
:1010D000EDC02D813E812230310509F477C08D812C
:1010E0009E818330910509F4A9C0E0C08B818830CE
:1010F00018F081E08983DCC08C818130A1F4ABE3FE
:10110000B0E0EBE3F0E08081482F8B81282F30E0C6
:1011100081E090E0022E02C0880F991F0A94E2F746
:10112000842B8C93C5C08C818823A9F4ABE3B0E0F9
:10113000EBE3F0E08081482F8B81282F30E081E0C5
:1011400090E0022E02C0880F991F0A94E2F7809562
:1011500084238C93ADC081E08983AAC08B818830C1
:1011600018F081E08983A4C08C818130A1F4A8E3C8
:10117000B0E0E8E3F0E08081482F8B81282F30E059
:1011800081E090E0022E02C0880F991F0A94E2F7D6
:10119000842B8C938DC08C818823A9F4A8E3B0E0C4
:1011A000E8E3F0E08081482F8B81282F30E081E058
:1011B00090E0022E02C0880F991F0A94E2F78095F2
:1011C00084238C9375C081E0898372C08B818830C1
:1011D00018F081E089836CC08C818130A1F4A5E393
:1011E000B0E0E5E3F0E08081482F8B81282F30E0EC
:1011F00081E090E0022E02C0880F991F0A94E2F766
:10120000842B8C9355C08C818823A9F4A5E3B0E08E
:10121000E5E3F0E08081482F8B81282F30E081E0EA
:1012200090E0022E02C0880F991F0A94E2F7809581
:1012300084238C933DC081E089833AC08B818830C0
:1012400018F081E0898334C08C818130A1F4A2E35D
:10125000B0E0E2E3F0E08081482F8B81282F30E07E
:1012600081E090E0022E02C0880F991F0A94E2F7F5
:10127000842B8C931DC08C818823A9F4A2E3B0E059
:10128000E2E3F0E08081482F8B81282F30E081E07D
:1012900090E0022E02C0880F991F0A94E2F7809511
:1012A00084238C9305C081E0898302C081E0898317
:1012B000898126960FB6F894DEBF0FBECDBFCF91C1
:1012C000DF910895DF93CF93CDB7DEB727970FB6A1
:1012D000F894DEBF0FBECDBF8A836B835D834C83E2
:1012E00019828C819D81009719F481E089838BC0DC
:1012F0008A81282F30E03F832E834E815F814130E9
:10130000510589F18E819F818230910534F42E81BF
:101310003F812115310569F074C04E815F814230F3
:101320005105D9F18E819F818330910509F44FC019
:1013300068C08B81883018F081E0898364C0E9E35C
:10134000F0E08081282F30E08B81882F90E0A90188
:1013500002C0559547958A95E2F7CA018170EC81E4
:10136000FD81808350C08B81883018F081E08983B3
:101370004AC0E6E3F0E08081282F30E08B81882F9F
:1013800090E0A90102C0559547958A95E2F7CA01F8
:101390008170EC81FD81808336C08B81883018F0AC
:1013A00081E0898330C0E3E3F0E08081282F30E0E2
:1013B0008B81882F90E0A90102C0559547958A95A9
:1013C000E2F7CA018170EC81FD8180831CC08B81B2
:1013D000883018F081E0898316C0E0E3F0E0808176
:1013E000282F30E08B81882F90E0A90102C055950D
:1013F00047958A95E2F7CA018170EC81FD8180836F
:1014000002C081E08983898127960FB6F894DEBFF8
:101410000FBECDBFCF91DF910895DF93CF9300D062
:1014200000D00F92CDB7DEB78A836B8319828A8191
:10143000282F30E03D832C838C819D818130910564
:10144000D1F02C813D81223031052CF48C819D819D
:10145000009761F01FC02C813D812230310581F061
:101460008C819D818330910581F014C0EAE3F0E026
:101470008B81808311C0E7E3F0E08B8180830CC017
:10148000E4E3F0E08B81808307C0E1E3F0E08B814F
:10149000808302C081E0898389810F900F900F9033
:1014A0000F900F90CF91DF910895DF93CF9300D0ED
:1014B00000D00F92CDB7DEB78A836B8319828A8101
:1014C000282F30E03D832C838C819D8181309105D4
:1014D000D1F02C813D81223031052CF48C819D810D
:1014E000009761F01FC02C813D812230310581F0D1
:1014F0008C819D818330910581F014C0EBE3F0E095
:101500008B81808311C0E8E3F0E08B8180830CC085
:10151000E5E3F0E08B81808307C0E2E3F0E08B81BC
:10152000808302C081E0898389810F900F900F90A2
:101530000F900F90CF91DF910895DF93CF9300D05C
:1015400000D000D0CDB7DEB78A837C836B8319824D
:101550008A81282F30E03E832D838D819E818130CA
:10156000910519F12D813E81223031052CF48D81B8
:101570009E81009761F043C02D813E81223031056C
:1015800011F18D819E818330910559F138C08B8195
:101590009C81009719F481E0898333C0E9E3F0E08E
:1015A0008081EB81FC8180832CC08B819C810097A2
:1015B00019F481E0898325C0E6E3F0E08081EB81C6
:1015C000FC8180831EC08B819C81009719F481E08F
:1015D000898317C0E3E3F0E08081EB81FC818083A5
:1015E00010C08B819C81009719F481E0898309C028
:1015F000E0E3F0E08081EB81FC81808302C081E048
:101600008983898126960FB6F894DEBF0FBECDBFC1
:10161000CF91DF9108951F920F920FB60F92112470
:101620002F933F934F935F936F937F938F939F93EA
:10163000AF93BF93EF93FF93DF93CF93CDB7DEB715
:10164000E897DEBFCDBF8091AD009091AE008330B2
:10165000910531F484E090E09093AE008093AD006A
:101660008091AD009091AE008430910509F08EC05C
:1016700080E062E041E00E94490881E00E94C411DC
:1016800080E690E00E94001380E090E8ABE3B5E4D0
:101690008DAB9EABAFABB8AF6DA97EA98FA998AD4E
:1016A00020E030E04AEF54E40E941F02DC01CB014D
:1016B00089AB9AABABABBCAB69A97AA98BA99CA946
:1016C00020E030E040E85FE30E94250488232CF40A
:1016D00081E090E098AB8FA73FC069A97AA98BA958
:1016E0009CA920E03FEF4FE757E40E94C50318167E
:1016F0004CF56DA97EA98FA998AD20E030E040E2BD
:1017000051E40E941F02DC01CB01BC01CD010E940B
:101710004900DC01CB0198AB8FA70FC088EC90E0AB
:101720009EA78DA78DA59EA50197F1F79EA78DA7D2
:101730008FA598A9019798AB8FA78FA598A9009717
:1017400069F714C069A97AA98BA99CA90E944900CC
:10175000DC01CB0198AB8FA78FA598A99CA78BA77D
:101760008BA59CA50197F1F79CA78BA781E00E9410
:10177000C41188E690E00E9400130E94C60D81E02B
:1017800090E09093D2008093D10088C18091AD0009
:101790009091AE008230910509F080C181E00E94F5
:1017A000C41181E790E00E94001380E090E0AAE776
:1017B000B4E48FA398A7A9A7BAA76FA178A589A514
:1017C0009AA520E030E04AEF54E40E941F02DC01B9
:1017D000CB018BA39CA3ADA3BEA36BA17CA18DA1C8
:1017E0009EA120E030E040E85FE30E9425048823CA
:1017F0002CF481E090E09AA389A33FC06BA17CA167
:101800008DA19EA120E03FEF4FE757E40E94C50362
:1018100018164CF56FA178A589A59AA520E030E0AF
:1018200040E251E40E941F02DC01CB01BC01CD016A
:101830000E944900DC01CB019AA389A30FC088EC68
:1018400090E098A38F8F8F8D98A10197F1F798A3BF
:101850008F8F89A19AA101979AA389A389A19AA19F
:10186000009769F714C06BA17CA18DA19EA10E9475
:101870004900DC01CB019AA389A389A19AA19E8F7B
:101880008D8F8D8D9E8D0197F1F79E8F8D8F8EE7B9
:1018900090E00E94001380E090E0AAE7B4E4898F12
:1018A0009A8FAB8FBC8F698D7A8D8B8D9C8D20E04C
:1018B00030E04AEF54E40E941F02DC01CB018D8B23
:1018C0009E8BAF8BB88F6D897E898F89988D20E034
:1018D00030E040E85FE30E94250488232CF481E097
:1018E00090E09C8B8B8B3FC06D897E898F89988D12
:1018F00020E03FEF4FE757E40E94C50318164CF570
:10190000698D7A8D8B8D9C8D20E030E040E251E432
:101910000E941F02DC01CB01BC01CD010E944900E5
:10192000DC01CB019C8B8B8B0FC088EC90E09A8BF9
:10193000898B89899A890197F1F79A8B898B8B8991
:101940009C8901979C8B8B8B8B899C89009769F76D
:1019500014C06D897E898F89988D0E944900DC01B1
:10196000CB019C8B8B8B8B899C89988B8F878F85E8
:1019700098890197F1F7988B8F8781E890E00E9412
:10198000001380E090E0AAE7B4E48B879C87AD87E2
:10199000BE876B857C858D859E8520E030E04AEF93
:1019A00054E40E941F02DC01CB018F839887A98732
:1019B000BA876F81788589859A8520E030E040E894
:1019C0005FE30E94250488232CF481E090E09E834D
:1019D0008D833FC06F81788589859A8520E03FEFB0
:1019E0004FE757E40E94C50318164CF56B857C85BC
:1019F0008D859E8520E030E040E251E40E941F0288
:101A0000DC01CB01BC01CD010E944900DC01CB010E
:101A10009E838D830FC088EC90E09C838B838B81A9
:101A20009C810197F1F79C838B838D819E81019727
:101A30009E838D838D819E81009769F714C06F818D
:101A4000788589859A850E944900DC01CB019E83B7
:101A50008D838D819E819A83898389819A81019763
:101A6000F1F79A83898380E063E040E00E944908AF
:101A700080E062E040E00E94490881E00E94C411D9
:101A800083E090E09093AE008093AD001092D1007F
:101A90001092D0001092D2001092D100E896DEBFD2
:101AA000CDBFCF91DF91FF91EF91BF91AF919F910A
:101AB0008F917F916F915F914F913F912F910F90F7
:101AC0000FBE0F901F901895DF93CF93CDB7DEB761
:101AD000ABE5B0E0EBE5F0E0808180628C93A4E5BB
:101AE000B0E0E4E5F0E080818F7B8C93AFE5B0E07F
:101AF000EFE5F0E0808180688C93CF91DF910895CD
:101B0000DF93CF93CDB7DEB7ABE5B0E0EBE5F0E028
:101B1000808180648C93CF91DF910895DF93CF9380
:101B2000CDB7DEB7ABE5B0E0EBE5F0E080818F7BD1
:101B30008C93CF91DF910895DF93CF93CDB7DEB72C
:101B4000ABE5B0E0EBE5F0E0808180688C93CF916D
:101B5000DF910895DF93CF93CDB7DEB7ABE5B0E06B
:101B6000EBE5F0E080818F778C93CF91DF91089542
:101B7000DF93CF93CDB7DEB7ABE5B0E0EBE5F0E0B8
:101B8000808180628C93CF91DF910895DF93CF9312
:101B9000CDB7DEB7ABE5B0E0EBE5F0E080818F7D5F
:101BA0008C93CF91DF910895DF93CF9300D00F9264
:101BB000CDB7DEB789838981282F30E03B832A8324
:101BC0008A819B818130910521F12A813B812230DC
:101BD00031052CF48A819B81009761F046C02A81EF
:101BE0003B812230310521F18A819B81833091052F
:101BF00071F13BC0A5E5B0E0E5E5F0E080818E7FC6
:101C00008C93A5E5B0E0E5E5F0E0808182608C93FF
:101C10002CC0A5E5B0E0E5E5F0E0808181608C9323
:101C2000A5E5B0E0E5E5F0E0808182608C931DC021
:101C3000A5E5B0E0E5E5F0E0808181608C93A5E565
:101C4000B0E0E5E5F0E080818D7F8C930EC0A5E5E6
:101C5000B0E0E5E5F0E080818E7F8C93A5E5B0E013
:101C6000E5E5F0E080818D7F8C930F900F900F90D1
:101C7000CF91DF910895DF93CF9300D00F92CDB72E
:101C8000DEB789838981282F30E03B832A838A81CC
:101C90009B818130910521F12A813B8122303105E0
:101CA0002CF48A819B81009761F046C02A813B8198
:101CB0002230310521F18A819B818330910571F1B8
:101CC0003BC0A5E5B0E0E5E5F0E080818B7F8C933B
:101CD000A5E5B0E0E5E5F0E0808188608C932CC05C
:101CE000A5E5B0E0E5E5F0E0808184608C93A5E5B2
:101CF000B0E0E5E5F0E0808188608C931DC0A5E54B
:101D0000B0E0E5E5F0E0808184608C93A5E5B0E08B
:101D1000E5E5F0E08081877F8C930EC0A5E5B0E01B
:101D2000E5E5F0E080818B7F8C93A5E5B0E0E5E50B
:101D3000F0E08081877F8C930F900F900F90CF9170
:101D4000DF910895DF93CF9300D00F92CDB7DEB728
:101D500089838981282F30E03B832A838A819B8174
:101D6000009731F02A813B812130310549F00FC0C5
:101D7000A4E5B0E0E4E5F0E080818F7B8C9307C0C0
:101D8000A4E5B0E0E4E5F0E0808180648C930F90FE
:101D90000F900F90CF91DF910895DF93CF93CDB740
:101DA000DEB7AFE5B0E0EFE5F0E0808180688C93CE
:101DB000CF91DF910895DF93CF93CDB7DEB7AFE535
:101DC000B0E0EFE5F0E080818F778C93CF91DF91E9
:101DD0000895DF93CF93CDB7DEB781E060EF0E9427
:101DE0000D0A81E06FEF0E94550ACF91DF910895AF
:101DF000DF93CF93CDB7DEB763970FB6F894DEBF0E
:101E00000FBECDBF9B8B8A8BEA89FB89108281E054
:101E10006FEF0E94550A84E0888BABC081E068892F
:101E200040E00E94490880E090E0A0EAB1E48B879E
:101E30009C87AD87BE876B857C858D859E8520E0E0
:101E400030E04AEF54E40E941F02DC01CB018F8393
:101E50009887A987BA876F81788589859A8520E0D8
:101E600030E040E85FE30E94250488232CF481E001
:101E700090E09E838D833FC06F81788589859A85A8
:101E800020E03FEF4FE757E40E94C50318164CF5DA
:101E90006B857C858D859E8520E030E040E251E4B5
:101EA0000E941F02DC01CB01BC01CD010E94490050
:101EB000DC01CB019E838D830FC088EC90E09C8376
:101EC0008B838B819C810197F1F79C838B838D8120
:101ED0009E8101979E838D838D819E81009769F7F6
:101EE00014C06F81788589859A850E944900DC013C
:101EF000CB019E838D838D819E819A838983898185
:101F00009A810197F1F79A8389831F8628C09E01E1
:101F10002F5E3F4F81E06F85A9010E946209898988
:101F20008823B9F48F85482F50E08889882F90E066
:101F30009C0124503040CA01880F991F880F991FB7
:101F4000820F931FFC01E356FF4F8081EA89FB89D2
:101F5000808389898823D9F28F858F5F8F878F85CA
:101F60008430A8F281E06FEF0E94550A88898F5F64
:101F7000888B8889883008F451CF63960FB6F8941F
:101F8000DEBF0FBECDBFCF91DF910895DF93CF931A
:101F9000CDB7DEB7E8970FB6F894DEBF0FBECDBF62
:101FA00082E06FEF0E940D0A83E06FEF0E940D0A3E
:101FB00083E060E041E00E94300783E061E041E0BF
:101FC0000E94300783E062E041E00E94300780E039
:101FD00090E0ACE0B2E48DAB9EABAFABB8AF6DA917
:101FE0007EA98FA998AD20E030E04AEF54E40E942A
:101FF0001F02DC01CB0189AB9AABABABBCAB69A9CF
:102000007AA98BA99CA920E030E040E85FE30E9418
:10201000250488232CF481E090E098AB8FA73FC083
:1020200069A97AA98BA99CA920E03FEF4FE757E463
:102030000E94C50318164CF56DA97EA98FA998AD0D
:1020400020E030E040E251E40E941F02DC01CB01BD
:10205000BC01CD010E944900DC01CB0198AB8FA7E8
:102060000FC088EC90E09EA78DA78DA59EA5019737
:10207000F1F79EA78DA78FA598A9019798AB8FA779
:102080008FA598A9009769F714C069A97AA98BA9A7
:102090009CA90E944900DC01CB0198AB8FA78FA5BA
:1020A00098A99CA78BA78BA59CA50197F1F79CA746
:1020B0008BA78CE30E94C41180E090E0A0E8BFE30E
:1020C0008FA398A7A9A7BAA76FA178A589A59AA554
:1020D00020E030E04AEF54E40E941F02DC01CB0113
:1020E0008BA39CA3ADA3BEA36BA17CA18DA19EA13C
:1020F00020E030E040E85FE30E94250488232CF4D0
:1021000081E090E09AA389A33FC06BA17CA18DA13F
:102110009EA120E03FEF4FE757E40E94C503181649
:102120004CF56FA178A589A59AA520E030E040E2A2
:1021300051E40E941F02DC01CB01BC01CD010E94D1
:102140004900DC01CB019AA389A30FC088EC90E081
:1021500098A38F8F8F8D98A10197F1F798A38F8FF8
:1021600089A19AA101979AA389A389A19AA100970D
:1021700069F714C06BA17CA18DA19EA10E944900AA
:10218000DC01CB019AA389A389A19AA19E8F8D8F8F
:102190008D8D9E8D0197F1F79E8F8D8F8CE00E9423
:1021A000C41180E090E0A0E8BFE3898F9A8FAB8FE5
:1021B000BC8F698D7A8D8B8D9C8D20E030E04AEF4D
:1021C00054E40E941F02DC01CB018D8B9E8BAF8BF0
:1021D000B88F6D897E898F89988D20E030E040E846
:1021E0005FE30E94250488232CF481E090E09C8B1F
:1021F0008B8B3FC06D897E898F89988D20E03FEF62
:102200004FE757E40E94C50318164CF5698D7A8D87
:102210008B8D9C8D20E030E040E251E40E941F0253
:10222000DC01CB01BC01CD010E944900DC01CB01E6
:102230009C8B8B8B0FC088EC90E09A8B898B898963
:102240009A890197F1F79A8B898B8B899C890197E1
:102250009C8B8B8B8B899C89009769F714C06D8947
:102260007E898F89988D0E944900DC01CB019C8B6F
:102270008B8B8B899C89988B8F878F859889019709
:10228000F1F7988B8F8781E00E94C41180E090E085
:10229000A0E0B0E48B879C87AD87BE876B857C858B
:1022A0008D859E8520E030E04AEF54E40E941F02B5
:1022B000DC01CB018F839887A987BA876F817885E6
:1022C00089859A8520E030E040E85FE30E9425049C
:1022D00088232CF481E090E09E838D833FC06F8142
:1022E000788589859A8520E03FEF4FE757E40E9483
:1022F000C50318164CF56B857C858D859E8520E081
:1023000030E040E251E40E941F02DC01CB01BC013D
:10231000CD010E944900DC01CB019E838D830FC05B
:1023200088EC90E09C838B838B819C810197F1F7F3
:102330009C838B838D819E8101979E838D838D816C
:102340009E81009769F714C06F81788589859A8589
:102350000E944900DC01CB019E838D838D819E818B
:102360009A83898389819A810197F1F79A83898376
:1023700086E00E94C411E8960FB6F894DEBF0FBE47
:10238000CDBFCF91DF910895DF93CF93CDB7DEB767
:102390002F970FB6F894DEBF0FBECDBF8F8783E0B7
:1023A00061E040E00E94490883E062E040E00E9472
:1023B000490882E06F850E94550A83E060E041E0B1
:1023C0000E94490880E090E0A0E0B0E48B879C8701
:1023D000AD87BE876B857C858D859E8520E030E04E
:1023E0004AEF54E40E941F02DC01CB018F839887DF
:1023F000A987BA876F81788589859A8520E030E042
:1024000040E85FE30E94250488232CF481E090E0FB
:102410009E838D833FC06F81788589859A8520E072
:102420003FEF4FE757E40E94C50318164CF56B8544
:102430007C858D859E8520E030E040E251E40E945D
:102440001F02DC01CB01BC01CD010E944900DC016F
:10245000CB019E838D830FC088EC90E09C838B839F
:102460008B819C810197F1F79C838B838D819E8169
:1024700001979E838D838D819E81009769F714C09B
:102480006F81788589859A850E944900DC01CB019E
:102490009E838D838D819E819A83898389819A8190
:1024A0000197F1F79A83898383E060E040E00E941E
:1024B00049082F960FB6F894DEBF0FBECDBFCF915F
:1024C000DF910895DF93CF93CDB7DEB72F970FB687
:1024D000F894DEBF0FBECDBF8F8783E061E041E09F
:1024E0000E94490883E062E040E00E94490882E0DF
:1024F0006F850E94550A83E060E041E00E94490830
:1025000080E090E0A0E0B0E48B879C87AD87BE8739
:102510006B857C858D859E8520E030E04AEF54E414
:102520000E941F02DC01CB018F839887A987BA879D
:102530006F81788589859A8520E030E040E85FE307
:102540000E94250488232CF481E090E09E838D83F3
:102550003FC06F81788589859A8520E03FEF4FE7FE
:1025600057E40E94C50318164CF56B857C858D8554
:102570009E8520E030E040E251E40E941F02DC0131
:10258000CB01BC01CD010E944900DC01CB019E833F
:102590008D830FC088EC90E09C838B838B819C8122
:1025A0000197F1F79C838B838D819E8101979E8398
:1025B0008D838D819E81009769F714C06F81788526
:1025C00089859A850E944900DC01CB019E838D8319
:1025D0008D819E819A83898389819A810197F1F700
:1025E0009A83898383E060E040E00E9449082F9647
:1025F0000FB6F894DEBF0FBECDBFCF91DF91089527
:10260000DF93CF9300D00F92CDB7DEB79B838A8341
:1026100019820EC08981282F30E08A819B81FC01BC
:10262000E20FF31F80810E94621289818F5F89838C
:102630008981282F30E08A819B81FC01E20FF31F02
:102640008081882339F70F900F900F90CF91DF9101
:1026500008950F931F93DF93CF93CDB7DEB72C97D9
:102660000FB6F894DEBF0FBECDBF6F837887898722
:102670009A875C874B878F819885A985BA858B83DC
:102680009C83AD83BE831A8215C08A818F5F8A8343
:102690008B819C81AD81BE812AE030E040E050E03A
:1026A000BC01CD010E940B17DA01C9018B839C8309
:1026B000AD83BE838B819C81AD81BE810097A105D6
:1026C000B10519F7198239C08A81882F90E09C01E1
:1026D000215030408981882F90E0A901481B590B77
:1026E000CA019C018B859C858C01020F131F8F8171
:1026F0009885A985BA852AE030E040E050E0BC0129
:10270000CD010E940B17DC01CB01805DF8018083B5
:102710008F819885A985BA852AE030E040E050E0B5
:10272000BC01CD010E940B17DA01C9018F83988784
:10273000A987BA8789818F5F898399818A81981750
:1027400018F28A81282F30E08B859C85FC01E20FEE
:10275000F31F10822C960FB6F894DEBF0FBECDBFCC
:10276000CF91DF911F910F910895DF93CF93CDB754
:10277000DEB76C970FB6F894DEBF0FBECDBF8B8F60
:102780006C8F80E8898F80EC8A8F8B8D882F90E00A
:102790009C0121503040CE014996FC01E20FF31F0D
:1027A00090818C8D890F81500E94C41180E090E04F
:1027B000A8ECB2E48D8B9E8BAF8BB88F6D897E8930
:1027C0008F89988D2BEA3AEA4AE250E40E941F0270
:1027D000DC01CB01898B9A8BAB8BBC8B69897A89A5
:1027E0008B899C8920E030E040E85FE30E9425046B
:1027F00088231CF481E0888B91C069897A898B8950
:102800009C8920E030E04FE753E40E94C50318168E
:102810000CF07BC06D897E898F89988D20E030E037
:102820004AE754E40E941903DC01CB018C879D87A1
:10283000AE87BF876C857D858E859F8520E030E0E3
:102840004AEF54E40E941F02DC01CB01888799877C
:10285000AA87BB87688579858A859B8520E030E0DB
:1028600040E85FE30E94250488232CF481E090E097
:102870009F838E833FC0688579858A859B8520E00C
:102880003FEF4FE757E40E94C50318164CF56C85DF
:102890007D858E859F8520E030E040E251E40E94F6
:1028A0001F02DC01CB01BC01CD010E944900DC010B
:1028B000CB019F838E830FC088EC90E09D838C8337
:1028C0008C819D810197F1F79D838C838E819F81FF
:1028D00001979F838E838E819F81009769F724C023
:1028E000688579858A859B850E944900DC01CB013A
:1028F0009F838E838E819F819B838A838A819B8124
:102900000197F1F79B838A830FC069897A898B8944
:102910009C890E944900DC01CB01888B88898983CE
:1029200089818A95F1F789836C960FB6F894DEBF9A
:102930000FBECDBFCF91DF910895DF93CF93CDB779
:10294000DEB780E061E040E00E9430070E9496061A
:10295000CF91DF910895DF93CF9300D000D0CDB712
:10296000DEB78A837C836B8319822B813C818A81C9
:10297000B9010E94DC068983EB81FC8120813181D1
:1029800042815381DA01C901880F991FAA1FBB1F19
:10299000880F991FAA1FBB1F820F931FA41FB51F6B
:1029A000892F9A2FAB2FBB27EB81FC8180839183EA
:1029B000A283B383EB81FC8180819181A281B38169
:1029C0000196A11DB11DEB81FC8180839183A283BF
:1029D000B38389810F900F900F900F90CF91DF916B
:1029E0000895DF93CF9300D000D00F92CDB7DEB71C
:1029F00024EB30E081E0B9010E94AB148091B40077
:102A00009091B500A091B600B091B700BC01CD0186
:102A10009E012F5F3F4FA9010E942913CE0101960D
:102A20000E94001380E20E9462120F900F900F909C
:102A30000F900F90CF91DF910895DF93CF93CDB793
:102A4000DEB76C970FB6F894DEBF0FBECDBF80E047
:102A500062E041E00E94300780E063E041E00E94D4
:102A6000300781E067E041E00E94300780E062E0EB
:102A700040E00E9449081C8A1D8A1E8A1F8A81E044
:102A8000888F82E0898F83E08A8F84E08B8F1B8A16
:102A90001A8A0E94E90E0E94640D0E94C60F0E94CD
:102AA0009D140E947F1681E067E040E00E94490883
:102AB00020C18091D000833008F0FEC0CE014C963A
:102AC0000E94F80E8C8D882309F413C18B89282F5E
:102AD00030E04C8DCE014496FC01E20FF31F4083A1
:102AE0008B89282F30E0CE014496FC01E20FF31FC2
:102AF0008081882F90E0A0E0B0E028893989BC016E
:102B0000CD01A9010E942913888999890E94001387
:102B10008B898F5F8B8B8B89843009F0EAC01F868D
:102B20001AC08F85282F30E0CE014496FC01E20FB9
:102B3000F31F40818F85282F30E0CE014896FC019D
:102B4000E20FF31F8081481719F48A898F5F8A8BFF
:102B50008F858F5F8F878F85843018F38A898430C3
:102B600009F09FC081E00E94C41180E063E041E071
:102B70000E9449081092AD000E94B80D82E0809337
:102B8000AD0081E067E040E00E9449081B8A1A8A94
:102B900081E067E040E00E9449087DC081E061E09B
:102BA0000E94B5130E94C01680E090E0A8E4B2E451
:102BB0008B879C87AD87BE876B857C858D859E8541
:102BC00020E030E04AEF54E40E941F02DC01CB0118
:102BD0008F839887A987BA876F81788589859A8539
:102BE00020E030E040E85FE30E94250488232CF4D5
:102BF00081E090E09E838D833FC06F8178858985D9
:102C00009A8520E03FEF4FE757E40E94C50318166E
:102C10004CF56B857C858D859E8520E030E040E21B
:102C200051E40E941F02DC01CB01BC01CD010E94D6
:102C30004900DC01CB019E838D830FC088EC90E0BE
:102C40009C838B838B819C810197F1F79C838B8381
:102C50008D819E8101979E838D838D819E810097BA
:102C600069F714C06F81788589859A850E9449002B
:102C7000DC01CB019E838D838D819E819A83898324
:102C800089819A810197F1F79A83898380E20E9472
:102C900062120E94F1148091AD00823009F47ECF5F
:102CA00028C08091D0008F5F8093D0001B8A1A8A41
:102CB00081E00E94C4111DC08091D0008330C8F013
:102CC0001092AD000E94B80D82E08093AD0081E0CB
:102CD00067E040E00E94490808C081E061E00E948E
:102CE000B51384E890E00E9400138091AD0082301B
:102CF000A1F38091D100882309F0DBCED4CEDF93FD
:102D0000CF93CDB7DEB780E060E040E00E943007AF
:102D10000E949606CF91DF910895DF93CF9300D064
:102D200000D0CDB7DEB78A837C836B8319822B8179
:102D30003C818A81B9010E94DC068983EB81FC8198
:102D400080819181A281B38124EF31E040E050E0A5
:102D5000BC01CD010E94EC16DC01CB01892F9A2F1A
:102D6000AB2FBB27EB81FC8180839183A283B3834C
:102D700089810F900F900F900F90CF91DF91089560
:102D8000DF93CF9300D000D00F92CDB7DEB720EB0A
:102D900030E080E0B9010E948D168091B0009091E2
:102DA000B100A091B200B091B300BC01CD019E0171
:102DB0002F5F3F4FA9010E942913CE0101960E9467
:102DC000001380E20E9462120F900F900F900F90FC
:102DD0000F90CF91DF910895629FD001739FF00112
:102DE000829FE00DF11D649FE00DF11D929FF00D9B
:102DF000839FF00D749FF00D659FF00D9927729FD2
:102E0000B00DE11DF91F639FB00DE11DF91FBD015C
:102E1000CF0111240895A1E21A2EAA1BBB1BFD01AC
:102E20000DC0AA1FBB1FEE1FFF1FA217B307E407A9
:102E3000F50720F0A21BB30BE40BF50B661F771F01
:102E4000881F991F1A9469F76095709580959095E1
:102E50009B01AC01BD01CF0108952F923F924F928B
:102E60005F926F927F928F929F92AF92BF92CF921A
:102E7000DF92EF92FF920F931F93CF93DF93CDB723
:102E8000DEB7CA1BDB0B0FB6F894DEBF0FBECDBF9B
:102E900009942A88398848885F846E847D848C846C
:102EA0009B84AA84B984C884DF80EE80FD800C8175
:102EB0001B81AA81B981CE0FD11D0FB6F894DEBF58
:0C2EC0000FBECDBFED010895F894FFCFC8
:102ECC0057454C434F4D4500456E74657220505725
:102EDC0000636C6F73696E6720696E20330020325B
:102EEC000020310053797374656D206973206C6F09
:102EFC00636B656400000000000000000001020329
:0E2F0C000405060708090A0B0C0D0E0F100332
:00000001FF
